:020000041000EA
:1000000000B5324B212058609868022188439860DF
:10001000D860186158612E4B002199600221596106
:100020000121F02299502B49196001219960352056
:1000300000F044F80222904214D00621196600F024
:1000400034F8196E01211966002018661A6600F04E
:100050002CF8196E196E196E052000F02FF8012189
:100060000842F9D1002199601B49196000215960AB
:100070001A491B48016001219960EB211966A021F2
:10008000196600F012F800219960164914480160C1
:100090000121996001BC002800D000471248134993
:1000A000086003C880F30888084703B5996A0420EC
:1000B0000142FBD001200142F8D103BD02B5186610
:1000C0001866FFF7F2FF186E186E02BD00000240BE
:1000D000000000180000070000035F00212200005C
:1000E000F4000018222000A00001001008ED00E03C
:1000F00000000000000000000000000074B24E7A12
:1001000000200420F7010010C3010010C5010010F9
:10011000C1010010C1010010C1010010C101001097
:10012000C1010010C1010010C1010010C701001081
:10013000C1010010C1010010C9010010CB01001065
:10014000CD010010CD010010CD010010CD01001037
:10015000CD010010CD010010CD010010CD01001027
:10016000CD010010CD010010CD010010CD01001017
:10017000CD010010CD010010CD010010CD01001007
:10018000CD010010CD010010CD010010CD010010F7
:10019000CD010010CD010010CD010010CD010010E7
:1001A000CD010010CD010010CD010010CD010010D7
:1001B000CD010010CD010010CD010010CD010010C7
:1001C00000BE00BE00BE00BE00BE00BEEFF3058054
:1001D000103800BEF2EB8871A84E0010C84E001017
:1001E0003402001090A31AE700201F49086006C8D7
:1001F00081F3088810471D48006800282FD10DA4FE
:100200000ECC002902D000F012F8F9E71849194A7B
:10021000002000E001C19142FCD1174988471749ED
:1002200088471749884700BEFDE701C901C29A42C5
:10023000FBD37047C84E0010C0000020100F0020F4
:10024000185D00100000042000000420185D00105C
:10025000001004200010042000000000704709482E
:1002600001F0ECFF0047000008ED00E0000000D0C6
:10027000100F0020981C0020B5200010550300101E
:10028000A92100105756000006005250ABB360532E
:100290006C4C001006005250861C03027C4C00106F
:1002A000060052505422A29D844C0010050052506A
:1002B000DE65F468185D0010F8B5C0460448054BCB
:1002C00010B5834203D0044B002B00D0984710BDDB
:1002D000100F0020100F0020000000000648074902
:1002E000091A8B10C90FC91810B5491003D0044B57
:1002F000002B00D0984710BD100F0020100F0020D9
:100300000000000010B5074C2378002B09D1FFF73F
:10031000D5FF054B002B02D0044800E000BF0123AD
:10032000237010BD1812002000000000484B001080
:10033000054B10B5002B03D00449054800E000BF71
:10034000FFF7CCFF10BDC046000000001C120020CB
:10035000484B0010F8B5DE4657464E464546E0B5D8
:1003600002F0FCF9D024012000F03EFA022324061A
:1003700000220121A362012000F01EFA022000F0F9
:1003800033FA042300220121A362022000F014FAB0
:10039000032000F029FA082300220121A362032090
:1003A00000F00AFA042000F01FFA102300220121B5
:1003B000A362042000F000FA052000F015FA2023C3
:1003C00000220121A362052000F0F6F9062000F0CA
:1003D0000BFA402300220121A362062000F0ECF971
:1003E000072000F001FA802300220121A3620720E8
:1003F00000F0E2F9082000F0F7F980235B0000220A
:100400000121A362082000F0D7F9092000F0ECF9DF
:1004100080239B0000220121A362092000F0CCF977
:100420000A2000F0E1F98023DB0000220121A36211
:100430000A2000F0C1F90B2000F0D6F980231B013F
:1004400000220121A3620B2000F0B6F90C2000F07D
:10045000CBF980235B0100220121A3620C2000F074
:10046000ABF90D2000F0C0F980239B01002201218F
:10047000A3620D2000F0A0F90E2000F0B5F9802352
:10048000DB0100220121A3620E2000F095F90F206C
:1004900000F0AAF980231B0200220121A3620F2091
:1004A00000F08AF9102000F09FF980235B020022FF
:1004B0000121A362102000F07FF9112000F094F9CF
:1004C00080239B0200220121A362112000F074F915
:1004D000122000F089F98023DB0200220121A362AF
:1004E000122000F069F9132000F07EF980231B032D
:1004F00000220121A362132000F05EF9142000F015
:1005000073F980235B03A36200220121142000F011
:1005100053F9974B01259B46964B974F9A46974B1D
:10052000974E9946974B984663685B081D4258D092
:1005300063689B081D425BD06368DB081D425ED088
:1005400063681B091D4265D063685B091D426CD05E
:1005500063689B091D4273D06368DB091D427AD032
:1005600063681B0A1D4200D181E063685B0A1D427B
:1005700000D188E063689B0A1D4200D18FE0636868
:10058000DB0A1D4200D196E063681B0B1D4200D1BF
:100590009DE06368DB0B1D4200D1A4E063681B0C87
:1005A0001D4200D1ABE063685B0C1D4200D1B2E09C
:1005B00063689B0C1D4200D1B9E06368DB0C1D42EF
:1005C00000D1C0E063681B0D1D42ADD16E4802F042
:1005D0008FF8FA20400000F09DFF63685B081D4221
:1005E000A6D1584602F084F863689B081D42A3D147
:1005F000504602F07DF86368DB081D42A0D14846F2
:1006000002F076F8FA20400000F084FF63681B09CE
:100610001D4299D1404602F06BF8FA20400000F0EC
:1006200079FF63685B091D4292D1380002F060F8DF
:10063000FA20400000F06EFF63689B091D428BD1D9
:10064000300002F055F8FA20400000F063FF6368C4
:10065000DB091D4284D14D4802F04AF8FA204000DF
:1006600000F058FF63681B0A1D4200D07DE7484830
:1006700002F03EF8FA20400000F04CFF63685B0A8D
:100680001D4200D076E7434802F032F8FA204000DD
:1006900000F040FF63689B0A1D4200D06FE73E48B0
:1006A00002F026F8FA20400000F034FF6368DB0A0D
:1006B0001D4200D068E7394802F01AF8FA204000DD
:1006C00000F028FF63681B0B1D4200D061E734482F
:1006D00002F00EF8FA20400000F01CFF6368DB0B0C
:1006E0001D4200D05AE72F4802F002F8FA204000DD
:1006F00000F010FF63681B0C1D4200D053E72A482E
:1007000001F0F6FFFA20400000F004FF63685B0C84
:100710001D4200D04CE7254801F0EAFFFA204000D6
:1007200000F0F8FE63689B0C1D4200D045E72048AE
:1007300001F0DEFFFA20400000F0ECFE6368DB0C05
:100740001D4200D03EE71B4801F0D2FFFA204000D6
:1007500000F0E0FE63681B0D1D4200D0E4E60A488D
:1007600001F0C6FFFA20400000F0D4FE35E7C04695
:10077000484B0010504B0010684B0010584B0010B5
:10078000704B0010604B0010D04B0010784B0010E5
:10079000804B0010884B0010904B0010984B0010BD
:1007A000A04B0010A84B0010B04B0010B84B00102D
:1007B000C04B0010C84B00100A4B80009C4604231D
:1007C0006044002901D00C230821002A00D10B002D
:1007D000026853400C221A4080235B0118430260D8
:1007E0007047C04604C001400123D0228340120656
:1007F00093629361094A83009446402263441968D6
:10080000C0004A40C02111408022520113431960A8
:10081000034B9C46052360444360704704C001407D
:1008200000400140024B18688007C00F7047C04667
:1008300000C0064070B5EFF3108C72B60D4D2B68FA
:10084000002BFCD0BFF35F8F0724CB08C618C05C19
:1008500001230C40A3401C000440034207D1034382
:100860003370BFF35F8F2C608CF3108870BD100065
:1008700001F09EFC2C0100D0F8B54746CE468846D4
:1008800080B5EFF3108C72B6214D2C68002CFCD093
:10089000BFF35F8F9A422CD8D4080727055D06194D
:1008A00001241740BC402C421FD007210127894654
:1008B00009E0D408055D06194C4639001440A140F2
:1008C0000C00294211D001329342F2D20120404261
:1008D000BFF35F8F00220E4B1A608CF31088002844
:1008E0000FDBC0BCB946B046F8BD2C4310003470D5
:1008F000EEE7BFF35F8F00232B608CF3108801209D
:1009000040424346002BECD0089801F051FCC04611
:100910002C0100D00021044B044ABFF35F8F02C3B7
:100920009342FAD17047C046000100D0800100D048
:10093000044A1078431CDBB2172B00D91023137024
:100940007047C046180E002000B5054B83B001006B
:10095000009318221F230348FFF78EFF03B000BD4A
:10096000D84B00109017002001238340002904D0A9
:10097000034A1360034A13607047034A1360FBE79E
:1009800080E200E000E100E080E100E0012383403C
:10099000014A13607047C04600E200E0084B103087
:1009A0009B688000C358002B07D0064A00209B1A82
:1009B0002F229A424041C0B270470020FCE7C04657
:1009C00000ED00E01C0E0020024B10309B68800000
:1009D000C058704700ED00E070B50D00EFF31086D1
:1009E00072B60F4A1368002BFCD0BFF35F8F0D4B1C
:1009F00010309B6884001B590B4A934203D09D42E0
:100A000001D001F0EDFB074B9B681D51BFF35F8FD9
:100A1000BFF35F8F0022024B1A6086F3108870BD0F
:100A2000240100D000ED00E0CD010010F0B55746E4
:100A30004E46DE464546E0B585B0060002911700F9
:100A4000EFF3108B72B6674A1368002BFCD0BFF32C
:100A50005F8F0025644B5D579A46002D00DAA4E0B5
:100A60006B00624C03935B199B009846A146C144FE
:100A70004B4652469B79103613705D4BB2009B6813
:100A8000019299580B1B2F2B34D95A4B994200D005
:100A9000A4E0039B584A9C46584B6544AD00635301
:100AA000434602336519E418554B0121043B1B1BD7
:100AB0001B055B0D13436B80524BEF71AB80FF2323
:100AC000AB71029BAB604B460B431900484B019A3C
:100AD0009B689950BFF35F8FBFF35F8F0022414B3C
:100AE0001A608BF3108805B0F0BCBB46B246A9462D
:100AF000A046F0BD01200A008243D379BB422FD823
:100B000045464E46130040491B1B5B415943090DA6
:100B10003A4B63533A4B02356519043B5B1B1B058B
:100B2000354D5B0D2B4373800426B446E0444444AA
:100B3000131F1B1B4C46A17102991B05A16049465E
:100B40005B0D2B43A380314BE77101431360BDE77D
:100B50005800C01880002018C679BE422BD9020068
:100B60000623D356002BF3DA101D82462848804610
:100B700004267642B446E14450464E46361A3005C5
:100B8000400D824656461C48957106439680039A4E
:100B9000944665441D4AAD00641922604246A37123
:100BA000029BA280E771A36090E701F019FB00258A
:100BB00053465D5754E7101D824690884005001546
:100BC00084464046D444664604302018301AE02655
:100BD0000005400D360230438046C9E701F000FBB6
:100BE00057E7C046240100D0911C00201C0E0020B5
:100BF00000ED00E0CD01001000E0FFFF00A1FFFFCD
:100C00004C0E002001BDFFFFAAAA0000014880474A
:100C100001BD0000F0B5DE4657464E464546E0B5FC
:100C20000C0083B0EFF3108972B6584A1368002B9A
:100C3000FCD0BFF35F8F564B9A68030010339F00C0
:100C4000D559544A9046954232D0A54243D0524E8F
:100C5000AA1B2F2A2CD801228240924651464F4A85
:100C600012681140019151464D4A1160BFF35F8FE8
:100C7000EFF305829346002A33D101232A009A43D9
:100C800093689C4208D177E04B005B189B00F318F7
:100C90009968A1422AD01A00062151560029F3DA98
:100CA000019B002B19D052463E4B1A603B4B1A60F9
:100CB000374B9B68DD51BFF35F8FBFF35F8F00221F
:100CC000324B1A6089F3108803B0F0BCBB46B246C1
:100CD000A946A046F0BD1500EAE75246304B1A601F
:100CE000E6E79342C9D001F07BFAC6E706215956E0
:100CF000002921DB4A005018800034188046A06883
:100D00009860E079D871062020569871002824DB7D
:100D1000A488F01A6405241544440019E024000551
:100D2000400D24022043988052181F4B9200B618A1
:100D30001A781970B271B3E7594600290FD1FF3103
:100D400091711A49918018490A789A71184A9B1B27
:100D50005B415A43120D0A70A2E71648E3E7164AB0
:100D60001649D21A083A5002400D0143998014499D
:100D700052080A43DA8093E70621515613000029EE
:100D8000B8DA5A46002AEAD14546DCE7240100D009
:100D900000ED00E0CD0100101C0E002000E100E09D
:100DA00080E100E080E200E0911C002001BDFFFF37
:100DB000AAAA000001BD0000560E002000F0FFFFAF
:100DC00000F8FFFF70B5EFF3058101240443EFF352
:100DD000108C72B6214A1368002BFCD0BFF35F8FD2
:100DE0001F4B05001F4AED1A6D416A43120D1E4D3F
:100DF0008900AE6852B27658A6421CD006215956D8
:100E000091421CD012215956914222D01E2159568E
:100E1000914220D02A2159560324914210D0134BDD
:100E200019781A708171BFF35F8F00220B4B1A6023
:100E30008CF3108870BDAB680D4C5C50EFE700245C
:100E40006100091989005B18FF219971094999808E
:100E5000E5E70124F4E70224F2E7C046240100D0CC
:100E60001C0E0020AAAA000000ED00E0911C00204A
:100E7000CD01001001BDFFFF054B064A1360064A75
:100E8000136053609360D360136153619361704743
:100E90008080808000E400E004E400E000B5074BBF
:100EA00083B001000093002205230548FFF7E4FC0E
:100EB000002801DB1F23181A03B000BDF44B0010FB
:100EC000961C0020024B9C466144890001607047DB
:100ED0004000003410B50400FFF72AFD0100200097
:100EE000FFF7F0FFFF232371BFF35F8F10BDC046F4
:100EF00010B50400FFF71CFD01002000FFF7E2FF22
:100F0000FF23A380BFF35F8F10BDC04610B5040060
:100F10000120FFF719FD044B9C46604480002060CF
:100F2000BFF35F8F10BDC04640000034034B9C46AA
:100F3000614489000160BFF35F8F70474000003457
:100F400083680B4810B5844661446244090112016C
:100F50009A18591854684B6801209C4201D802D055
:100F60000020C0B210BD12680B689A42F9D8F7E7AA
:100F7000FFFFFF0F0A4B1968EFF3108072B60A6883
:100F8000002AFCD0BFF35F8F1B68BFF35F8F002286
:100F90001A6080F3108840BF002000217047C046CF
:100FA000601C0020F8B557464E464546DE46E0B583
:100FB00099460CAB1C780DAB1B78060090469A4600
:100FC0000768002C11D1BC7B002C42D065003B6827
:100FD0002D19033D59194B78BB73002B00D1FB73BE
:100FE00000238B704B700B7004E065003B682D197B
:100FF000033D5919B2682A4B94464246E3181B0137
:1010000063441A604A465A600A9A9A600B9ADA60F8
:1010100000238B704B700B707B7B9B46002B2BD07F
:1010200022005946B8687B6898473A68002816D06D
:101030005B4658465B005B445519033BA870D118CA
:10104000D35C002B00D06B705B460C707B73A345A8
:1010500013D0F0BCBB46B246A946A046F8BD5B46DD
:101060005B005B44033BD3189C705119525D002A0E
:1010700000D05A705B460B707C7342464B46307D05
:1010800000F096FB051E06D05346002B03D121002D
:10109000306800F0B1FD0E9B002BDAD01D70D8E750
:1010A000FFFFFF0FF0B5DE4657464E46454600238C
:1010B000E0B58BB00893674B8200D45800239B4661
:1010C000099000F015FB626806000F00EFF3108531
:1010D00072B61368002BFCD0BFF35F8F23689C4669
:1010E0005B7B9946002B00D169E0A2685A4B904681
:1010F0004B441B01984443461A685B681000190072
:10110000801BB941002900DC63E0099800F050FB26
:1011100000230022984600230692079300239A4654
:101120006368BFF35F8F5A461A6085F31088534691
:10113000002B08D10028C4D10BB0F0BCBB46B2468E
:10114000A946A046F0BD089B414618024B461843ED
:10115000D047626806000F00EFF3108572B613687F
:10116000002BFCD0BFF35F8F002F50DB33003B43DD
:1011700002D02369002B61D12368D97B002907D0D5
:101180004A00521819688C4649466244033A517025
:101190009A7B002A01D14A469A734A46DA734B4633
:1011A000E168013BCA5C0132CA545B462361636853
:1011B000BFF35F8F5A461A6085F3108881E70023DA
:1011C00000229846002306920793002300209A46A7
:1011D000A6E7002902D1002800D096E7002160464A
:1011E00000F088FC43461A685B6806920793434602
:1011F0009B689A464346DB689846E3684B44013B4C
:101200001B7808931B0203432361002088E72369AE
:10121000002BB1D0069A079B921BBB41002B15DB1C
:101220005946049101210391494602914146019199
:10123000514620000091FFF7B5FEB6E700F058FADE
:1012400032003B0012184B41002BE9DA0122034B1C
:101250005242E5E7441C0020FFFFFF0FFFFFFF7F26
:1012600010B5144C6368002B04D00A211248FFF714
:1012700029FE10BD2300114A1021206800F054FB04
:10128000032000F029FA032000F0FCFA03200C49A7
:1012900000F048FAFFF74CFB0A4B9C4603232375EA
:1012A000D0231B061B6860446375074B8000606099
:1012B000DC60DAE7640E0020601C0020410F0010A3
:1012C000A510001040000034441C00200048704766
:1012D000640E0020F0B54E464546DE465746E0B562
:1012E00085B0019310AB1B78060003930023994649
:1012F000984600927268EFF3108B72B61368002B59
:10130000FCD0BFF35F8F3568AC7B002C3DD067000D
:101310002B683F19033FDB195A78AA73002A00D1C2
:10132000EA73B168474A8C4600980199A2181201E5
:101330006244106051600E9991600F99D1604246ED
:101340009A705A701A706B7B9A46002B67D02200F5
:101350001900A8686B6898472A68002852D053463D
:1013600050465B005344D719033BB870D118D35C87
:10137000002B00D07B7053460C706B7354454FD0DC
:10138000F3681B19013B187800E000207368BFF375
:101390005F8F42461A608BF31088002C4FD04B466B
:1013A000002B08D10002204305B0F0BCBB46B2467A
:1013B000A946A046F0BD039B002B3ED00E9B00200B
:1013C0000F999847030004000D000B4335D0002906
:1013D0000ADA009A019B121BAB4100920193002B89
:1013E0000ADB039B994685E700F082F924184D41FA
:1013F00000940195002DF4DA0123134C5B42009315
:101400000194EEE753465B005344033BD3189C70B2
:10141000D119D25D002A00D05A7053460B706C73FC
:10142000307D009A019B00F0C3F981460028A7D0C7
:101430002100306800F0E0FBA2E70020B4E70120C3
:101440004042B1E7FFFFFF0FFFFFFF7F407D704786
:10145000F0B504000D0006267642F717C646361989
:101460006F4100B584B08F4214D811D000F040F91C
:1014700032003B00121A8B41002B15DC002B3ED0B2
:101480002000290000F03EF904B080BCB846F0BD51
:101490008642EBD90026002700F02AF932003B00F3
:1014A000121A8B41002BE9DD002302930193154BA7
:1014B0003200009314483B00FFF70CFF0028DFDBED
:1014C00000239846BC46114A114F7B6A9C4504D8BC
:1014D000B96A8E42D4D99C45D2D11168EFF31080FD
:1014E00072B60B68002BFCD0BFF35F8F1368BFF39D
:1014F0005F8F4146196080F3108820BFE5E7002A1E
:10150000BED0D1E7750F0010640E0020601C0020D3
:101510000040054070B5060000F0EAF8FA22040029
:101520000D00002330000021920000F03FFF001961
:101530006941002902DBFFF78BFF70BD01200149E3
:101540004042F8E7FFFFFF7FF0B5EFF30583CE469B
:10155000474680B505000C0085B0002B12D02C4A00
:101560000020536A9C4203D8926A0130AA4204D3F5
:1015700005B0C0BCB946B046F0BDE01A421E90416D
:10158000C0B2F5E7234E02930193234B0200009370
:1015900030000B00FFF79EFE031EE0DD20BF7168E8
:1015A000EFF3108772B60A68002AFCD0BFF35F8F92
:1015B000DAB294463068427B62451DD0FF221A4061
:1015C000510089460168914488464946414403399F
:1015D0008978002913D0F1681B0A88464244013AF1
:1015E0001278DBB29A420FD07368BFF35F8F00228C
:1015F0001A6087F31088B2E7FF221A40EBE73269DE
:101600009342F1D13161EFE7614600F0F5FAEBE783
:1016100000400540640E0020750F0010F0B5EFF398
:101620000582D6464F4646461000C0B51038EFF347
:10163000108872B6214C2368002BFCD0BFF35F8F5B
:101640000123190081401E4D1F006963AA461D4DEC
:1016500029601D4D2E78AC463500C5402F402B42E9
:1016600009D1BFF35F8F276088F31088E0BCBA46CA
:10167000B146A846F0BD5346144D5F6A83005D59DC
:10168000AF420ED3124A8E439B5862461670BFF388
:101690005F8F0022226088F31088002BE6D09847E5
:1016A000E4E70C4B92009C46624413681360BFF35E
:1016B0005F8F0023236088F31088D7E7280100D0CC
:1016C000004005403C700540951C00206C1C00202B
:1016D00078160020D03F054010B50100024A0348AB
:1016E000FFF7A8F810BDC046104C0010901C002059
:1016F000034B596A0A00986A596A8A42FAD17047BC
:1017000000400540064A536A9942FCD807D1044B71
:1017100002E05A6A914202D19A6A8242F9D3704732
:101720000040054070B504000D00EFF3108672B65E
:101730001A4A1368002BFCD0BFF35F8F002D1BD01B
:101740002000FFF741F9164981420AD02000FFF737
:1017500043F901212000FFF707F90123A340114AB3
:101760001360114BA400E550BFF35F8F00220B4BB9
:101770001A6086F3108870BD0B4BA200D550012271
:10178000A2400A4920000B7893430B700449FFF7ED
:1017900041FA00212000FFF7E7F8E5E7280100D033
:1017A0001D1600103860054078160020951C00209A
:1017B000F0B54F46D6464646C0B507002C4C616A88
:1017C0000D00A66A616AA942FAD18B4208D805D0F9
:1017D0000120E0BCBA46B146A846F0BDB242F7D9F6
:1017E000EFF3108A72B6234801680029FCD0BFF3DA
:1017F0005F8F0125BD4020491D4C884609788946E8
:101800002943C9B28C46414660460870391D1B48C1
:10181000890065630A51B9000B50216A00202942F2
:1018200019D0616A0800A66A616A8142FAD18B42C6
:1018300019D801D1B24216D8CC4516D00C4B1F2076
:101840001D625D6301230740BB400D4A1E381360D3
:1018500043464A461A70BFF35F8F0022054B1A6059
:101860008AF31088B5E70020F5E70120F3E7C046CA
:1018700000400540280100D0951C00206C1C002071
:1018800080E200E0EFF3108C72B60A490B68002B7F
:10189000FCD0BFF35F8F01238340074A07481362E0
:1018A00002789A430270BFF35F8F00230B608CF3C2
:1018B00010887047280100D000400540951C00208A
:1018C00070B5050014001600002915D00C00002A80
:1018D00012D080686B689847296800280ED0730082
:1018E0009B196200033B1219CB18033A9C708818AD
:1018F0008A5C002A15D10670200070BD63001B1998
:101900007200033B9219CB18033A9E7088188A5CC8
:10191000002A02D104703400EEE75A7004703400DB
:10192000EAE75A700670E7E730B583600023CCB26F
:1019300043730133047342608373C4730D00006802
:10194000012C06D9421C0133DBB2137003329C42D6
:10195000F9D1FF2129404B005918002340180338C2
:10196000437030BDF8B5CE46474606000C0080B542
:10197000002907D04D0003686D18033D5A195778A8
:10198000002F04D12000C0BCB946B046F8BD790094
:10199000C91903398846434459788946002159704A
:1019A000517073683A0021008068984733680028B6
:1019B00014D042469A18947059195B5D002B00D0E0
:1019C00053700F70270049463000FFF7CBFF3900F6
:1019D00002003000FFF774FF0400D3E7424641469F
:1019E0005D19AF709A185B5C002B00D06B7014709F
:1019F000E9E7C046F0B557464546DE464E46E0B5F7
:101A00000D006B0001685B19DF1E0400C85D83B028
:101A10000192CA19002850D043001B18033BCB1871
:101A20005E78B446002E1AD1019E002E42D0E67B8D
:101A3000002E04D073009B19CB18033B5D70A37B71
:101A4000002B00D1A573E57300282FD1002353701C
:101A500003B0F0BCBB46B246A946A046F0BD72003A
:101A60006244033A89184A78904600224A709146A7
:101A70005A70010032002000FFF722FF43468246E1
:101A8000002B07D05B0021684344033BCB185A78F6
:101A9000002A16D1424651462000FFF711FF216867
:101AA000019BCA19002BC2D10028CFD043001B18BC
:101AB000033BCB1800219970C8E7019B002BB6D1DE
:101AC000C4E7500080180338091848788346484610
:101AD0004870587041462000FFF7F2FE5946804694
:101AE0002000FFF73FFF414602002000FFF7E8FE1D
:101AF0008046CFE7F0B557464546DE464E46E0B550
:101B000083B00191457B04006B0000685B19DF1E08
:101B1000C15DC219002952D04B005B18033BC318AA
:101B20005E78B446002E1CD1019E002E44D0E67B88
:101B3000002E04D073009B19C318033B5D70A37B78
:101B4000002B00D1A573E573002931D100232800B3
:101B50005370617303B0F0BCBB46B246A946A046C1
:101B6000F0BD72006244033A801842789046002229
:101B7000427091465A7020003200FFF7A1FE4346A2
:101B80008246002B07D05B0021684344033BCB18FF
:101B90005A78002A17D1424651462000FFF790FE9E
:101BA000019B01002068C219002BC0D10029CDD0B3
:101BB0004B005B18033BC31800209870C6E7019BDD
:101BC000002BB4D1C2E750008018033809184878B8
:101BD000834648464870587041462000FFF770FE23
:101BE000594680462000FFF7BDFE41460200200016
:101BF000FFF766FE8046CEE770B5040000292CD0C2
:101C0000437B8B422ED005684800401803382818C3
:101C10008278002A21D053009B18033BEA5CEE181F
:101C20008A4202D11BE0002A08D053009B18033BD4
:101C3000EB185A788A42F6D142785A700023012272
:101C4000837043702000FFF7D5FE617B0200200007
:101C5000FFF736FE6073012000E0002070BD43787E
:101C60003370EBE701221900FFF7C4FE6073012017
:101C7000F4E7C04630B50C2083B000F0B3F9FEF7AE
:101C8000D1FD00280ED0994B994A1A605A609A608B
:101C9000DA601A615A619A61DA611A62954A5A6287
:101CA00003B030BD944CA06700F0F0F90122934BD3
:101CB0001A60636C012BFCD10322914B1A608E4A8F
:101CC000936B012BFCD1013301218E4A8E48009386
:101CD000043300F037F905238C4A009301218C4826
:101CE00000F030F98B4B5A68FF2A02D8802252004C
:101CF0005A6080227D4C824B21691201854D1A6009
:101D0000002907D0606900F0CBFA431C5800C018C6
:101D10000338FDD2E0217F4B02201A681140802257
:101D200052012A43116019684840032101401160A3
:101D300004219A681142FCD08022802192012A431A
:101D400009011160802252005A60734B2361734B6A
:101D50005968FF2900D85A600321684A6F4B116007
:101D600002399A681142FCD0E0201A6810408022A3
:101D700052011A43106018684840032101400220B4
:101D8000116066498A681042FCD080229201134398
:101D9000802212011A608022614B52004A60636106
:101DA000604B5968FF2900D85A6080225E4BE16978
:101DB00012015C4D1A60002907D0606900F070FACA
:101DC000431C5800C0180338FDD2E02255490B6867
:101DD0001A4080235B012B431A60802380229B01E1
:101DE0002B4312011A608022414B52004A60E3618A
:101DF0004E4B5968FF2900D85A6080224C4B216A0B
:101E000012014A4D1A60002907D0606900F048FAB3
:101E1000431C5800C0180338FDD2E02243490B6828
:101E20001A4080235B012B431A60802380229B0190
:101E30002B4312011A60802380225B004B602C4BE5
:101E4000D20223623B4B5968914200D25A608022F1
:101E5000394B616A1201374D1A60002907D0606959
:101E600000F01EFA431C5800C0180338FDD2E022CF
:101E700030490B681A4080235B012B431A60802392
:101E800080229B012B4312011A608023DB024B60EE
:101E9000184B6362294B5A68FF2A02D880225200ED
:101EA0005A608022264BA1691201244D1A60002934
:101EB00007D0606900F0F4F9431C5800C0180338DB
:101EC000FDD2E0221D490B681A4080235B012B43A1
:101ED0001A60802380229B012B4312011A60802309
:101EE0005B004B600E4BA361DAE6C04694170020FE
:101EF000006CDC021BB70000008000403CB00040DA
:101F000030B00040002F685900800240008C8647A6
:101F100000C0024030800040001BB7003C80004001
:101F2000405973075480004054B000406080004026
:101F300060B000406C8000406CB0004048800040C1
:101F400048B00040F8B5040021481D0017000E00FD
:101F500000F0A6F90100380000F0A2F9069B290460
:101F60001B0319432368002B20DB1A4B1A4DE21880
:101F700053425A4180235B019C461203174B624433
:101F80001A60174B1A601700AB689F43FBD1C02241
:101F9000231D92011A4321232660A0601360236849
:101FA000002BFCDA0823E1601360F8BD3F232268B0
:101FB0001340B342D9D1A3681B051B0D8342D4D172
:101FC000EE22E368D20213408B42CED1EDE7C04649
:101FD000001BB7000040FDBF00C0004000E0004013
:101FE00000F000408023024A9B000343D362704705
:101FF0000080054010B5140080221B4BD2051A60EA
:1020000000281AD00123194A1843194BDA61194ADA
:1020100042401A62596298628022134BD2051A60BC
:102020001549164A1160E022D2041A60002C07D12B
:102030008022134B12061A6010BD0D4BD861EBE7DE
:1020400063011B1B9A008023121912015B049A4240
:1020500000D30C4A0C4B1A60054B5A608022084B87
:10206000D2051A60E8E7C04600B00540D3C007B00B
:10207000008005402D3FF84FFCFF01000820014083
:1020800000A00540FFFFFF00341C0020AA23064AE1
:102090001B0113602F230549D360054B196053685A
:1020A000002BFCDA7047C0460040024000B0FA0046
:1020B000006002402C4B2D4A70B51A602C4A2D4B03
:1020C0002D491A6014008B689C43FBD12B4D2C4E7C
:1020D000B54208D2013E761BB60808CD98472300CA
:1020E0000134B342F9D1FFF7C5FD264A214B1A60EE
:1020F000214A9368DB43DB01DD09002BF9D1402243
:10210000214B224C224E9A675A671A67DA66B4420C
:1021100008D223682000002B20D00834FEF7E8FE08
:10212000B442F6D31B4E1C4CC022A168300000F014
:10213000ADF9A660FEF7EEFBFEF79EFEFFF790F806
:10214000164C174EB44208D2013E361BB60808CCD6
:1021500098472B0001359E42F9D170BD0834FEF737
:10216000B9FEB442D5D3DDE700E00040BFCDFBFEB1
:10217000FE7F3C0000F0004000C00040F80E002050
:10218000080F0020FFFFFF0100F00140F00E0020CB
:10219000F80E00200000002000ED00E0080F0020F5
:1021A000100F002000BEFDE710B5FFF7FBFFC04693
:1021B0000FB400B5084883B000F09AFA049B002BD6
:1021C00007D005A91800019100F018F8034800F0A5
:1021D0008FFA0120FFF7E6FF344C0010444C00104A
:1021E00010B50148FFF7E4FF484C001010B5002877
:1021F00000D110BD00F030FAFBE7C04610B5094A27
:102200000300146884B0002C08D001220091064815
:10221000524203A9A047012004B010BD00F068FAA3
:102220000020F9E7301C0020ED21001001480421B6
:10223000014B1847900E00205D220010142310B5AA
:102240000100188804331B88984710BD162310B569
:102250000100188802331B88984710BDF8B547461F
:10226000CE4680B50F1E19D01423994604330400BE
:102270000025012698464B461888434621681B884E
:10228000984701C4431E9841013540420640AF4281
:10229000F1D13000C0BCB946B046F8BD0126F8E720
:1022A000114A936F9B0813D210665166002905D01E
:1022B000FFE7FFE7FFE7516F106F704704B5002895
:1022C00001D00020C04302F0F7FB002104BDC0464E
:1022D000F0B5146E556E576F166FFFF7E5FF146675
:1022E000556657671667F0BD000000D0132370B520
:1022F0001D78012D15D010DD1C48FFF7A7FF1C4CE1
:1023000001008022200000F0C1F8022D06D01948FB
:10231000FFF794FF184B186070BD154C174BA36462
:10232000F5E7164B124C23606360A360E360236102
:102330006361A361E36123626362A362E362236377
:102340006363A363E36323646364A364E364236557
:102350006365A365E36523666366A366E366236737
:102360006367A367E367A364D1E7C04653440000F3
:10237000181000204C3300005C1C0020812300104A
:1023800007B5604601880A0A0230DF2AFAD1C9B2CD
:10239000820804D3028840880004104300E00068EB
:1023A000014A5050039007BD181000205143434389
:1023B000C9188C46110C83B24B4310B4040C614312
:1023C00092B280B2504362431C041B0C001910BC33
:1023D00059411304120CC018514161447047000068
:1023E000132310B512481C78FFF730FF0100012CB1
:1023F0000AD003DD80220F4800F048F80E48FFF7AE
:102400001DFF0E4B186010BD0A4C5422200000F036
:102410003DF80B4B6365A365E36523666366A366BE
:10242000E36623676367A367E3672362E361E5E726
:1024300053460000181100204C3300005C1C0020A3
:102440004524001007B5604601880A0A0230DF2AD9
:10245000FAD1C9B2820804D302884088000410432C
:1024600000E00068014A5050039007BD1811002099
:1024700001480421014B1847A00E00205D220010E6
:10248000014B1B6818470000A00E0020014B5B6841
:1024900018470000A00E0020030010B5080011002E
:1024A0001B68984710BDC046F0B546464F46D64615
:1024B000C0B5437D80460E001700002B46D0002A91
:1024C0003FDD4B1E9946244B0125002400209A46EF
:1024D0000DE04B461B5D0D3B5A425341325DDBB272
:1024E0000A2A0BD02B00013401359F421ADD002C43
:1024F000EFD14346325D1B7D0A2AF3D1002BF1D187
:10250000A04204DA4346211A1B6830189847434614
:1025100050461B6802219847013428002B000135E2
:102520009F42E4DC874204DD4346391A1B683018B9
:102530009847F619013E33780D3B5A4253414246C3
:102540001375E0BCBA46B146A846F0BD0368110059
:1025500030009847F5E7C046B44C0010F0B5DE46B1
:1025600057464E464546E0B585B017001C000600AC
:102570000D00FFF7BDF80023304A12184B41002B25
:1025800058DB2F4908008A4602F0AEFA01906B1C16
:1025900003D1300002F048FA0500002C25D1294B68
:1025A0009846294B1C68002C15D0002F20D1274FAE
:1025B00002E02469002C0ED02368002BF9D03B6880
:1025C000002B01D0A342F4D120002A003100C047E3
:1025D0002469002CF0D1019B002B27D105B0F0BC61
:1025E000BB46B246A946A046F0BD194B9846D8E76F
:1025F000164B994602ABDF1D0A239B4602E0246975
:10260000002CE8D02368002BF9D04B461B68002B28
:1026100001D0A342F3D12A0031002000C0475B461D
:102620000122390020003B70C047E8E7504602F025
:1026300033FAD3E70122074B5242A2E740420F0090
:10264000F00E0020A9240010241800202C180020CF
:1026500099240010FFFFFF7FF0B5CE46474680B5B6
:1026600083B06B460600DD1D2870FFF741F800239C
:102670001A4A12184B41002B2BDB194908008846D7
:1026800002F032FA174B81461C68002C14D0164F0A
:1026900002E02469002C0FD02368002BF9D03B689E
:1026A000002B01D0A342F4D1200001222900FFF722
:1026B000FBFE2469002CEFD14B46002B05D13000E6
:1026C00003B0C0BCB946B046F0BD404602F0E4F9E4
:1026D000F5E70122054B5242CFE7C04640420F00CA
:1026E000F00E0020241800202C180020FFFFFF7F90
:1026F00070B5040002F098F90023010005000122E2
:102700002000FFF72BFF084B1C68002C06D06368E5
:10271000002B05D098472469002CF8D1280070BD03
:102720002469002CF3D1F9E7241800200A4A136821
:10273000002B05D10CE01A001B691032002B07D0CA
:102740009842F8D1002902D10369136001617047F2
:102750000029FCD01060FAE72418002010B500F022
:10276000D9F910BD7047C0460022014B1A7070475E
:10277000921C00204B790020FF2B0BD18B79002B72
:1027800008D1CB79012B05D1082A03D98A78024BCD
:1027900009301A707047C046921C00200120704713
:1027A00070B5012909D115495379107909781B02AF
:1027B00003430020994202D070BD0120FCE753780A
:1027C000012B08D0022BF7D1002064220021FFF753
:1027D00011FC0120F0E79478D2780500120214432E
:1027E000D20502D5620A93401D000548FFF726FD79
:1027F0007F210300214028009847C046921C0020FA
:10280000554200000123037000487047B84C001087
:1028100048780B788A7800021843120410439622F5
:10282000CB7810B51B060343D200934200D010BDF5
:102830000348FFF703FD0021030008009847C04646
:1028400055420000024B1860024B19607047C046A9
:10285000881700208C17002010B5024B1878FEF75F
:1028600095F810BD931C0020114B70B51A68002A12
:102870001AD0EFF3108172B610680028FCD0BFF3B5
:102880005F8F00220B48596002701B68BFF35F8F97
:102890001A6081F3108800240025074B1878FEF792
:1028A00075F82900200070BDFA240025A400F4E783
:1028B0003C1C0020941C0020931C002070B50400D8
:1028C00000200E0001F002FB002835D0002001F0AE
:1028D00015FB002830D0FEF70BFF0023184A121812
:1028E0004B41002B24DB174D280002F0FDF8002897
:1028F00022D0002001F0EAFA00280BD101200021AB
:102900000324404200F0CCFC6442280002F0C4F8EA
:10291000200070BD002001F0F1FA0028EED0210067
:102920003200002001F0F6FA041EEED1033CECE781
:102930000122054B5242D6E703246442E8E7C04631
:1029400040420F00641C0020FFFFFF7FF8B5DE4609
:10295000574680B505000C00FEF7CAFE0023364A34
:1029600012184B41002B5ADB344908008A4602F00A
:10297000BBF8002803D1C0BCBB46B246F8BD00205E
:1029800001F0A4FA00284ED00026002C43DD2C4B89
:102990009B4614E0A919002001F030FB070001203C
:1029A0000021404200F07CFC002001F0EBFAFEF731
:1029B0009FFE234BF61918605960B4422BDD0020AE
:1029C00001F036FBA71B0200B84200DD3A00002AE6
:1029D000E0D101200021404200F062FC002001F023
:1029E000D1FA002001F072FA002814D0002001F082
:1029F0001FFB0028E1D1FEF77BFE5B460F001A6843
:102A00005B68002184460F4812184B419F4202D850
:102A1000D3D19445D1D9504602F03EF8ABE701221C
:102A2000094B5242A0E700200021054B1860596075
:102A3000504602F031F89EE740420F00641C00202F
:102A40001010002020A10700FFFFFF7F10B5244CCD
:102A500084B00021200002F037F800281CD1214B5F
:102A60001A68002A16D0EFF3108172B61068002899
:102A7000FCD0BFF35F8F01241B48596002781B68AC
:102A8000D2B20470BFF35F8F0020186081F310880A
:102A9000002A0AD004B010BD01200021404200F0FD
:102AA000FFFB200001F0F8FFF4E7FEF70FFC040045
:102AB000FEF71EFEFA220023920012184B41002B53
:102AC00009DB0121029100210191084920000091B8
:102AD000FEF700FCDEE70122054B5242F1E7C0465B
:102AE000641C00203C1C0020941C0020692800105D
:102AF000FFFFFF7F054B10B51868002804D0044B7A
:102B00000022196801F044F810BDC0468817002063
:102B10008C170020D02310B51B0684B01C68FEF76C
:102B2000D5FBFEF793FCA04202D0002004B010BDFC
:102B3000264B1B7801F066FC2548FEF7CBF90120F7
:102B4000FEF7ACF9FF23234C234920701840FDF712
:102B500043FF20780121FDF707FF0520FDF71EFF49
:102B6000002822D1FEF7B2FB0400FEF7C1FDFA22D5
:102B70000023920012184B41002B22DB012102910D
:102B800000210191154920000091FEF7A3FB0822C6
:102B9000040000211248FFF773FC002CC5DB11482C
:102BA0000121FFF7C3FD0120C0E700220E490520E7
:102BB000FDF73CFFFDF7BCFE01000948FEF7B6F942
:102BC000EDE70122094B5242D8E7C046C44E00103F
:102BD000641C0020931C00204D2A0010692800105E
:102BE0003C1C0020B00E002059280010FFFFFF7F82
:102BF00000487047704D0010004870471C4D001091
:102C000070B5040017480378002B21D0002C06D1A2
:102C1000C1241548154BA4004380048070BD052CC9
:102C20001DD8134B1048A400E558811C002304E074
:102C300001330A800231132B0ED0EA5CDCB2002A89
:102C4000F6D1C0230134E4B264009B001C43E4E7E6
:102C5000112100F017F8D9E7CA24A400DDE700200D
:102C6000DCE7C0467C1C0020FC17002009040000A3
:102C7000844D001010B5024800F0D8F810BDC046D1
:102C8000541C002030B54B1E012900D1A7E0664A34
:102C900011780D112C0030349F2900D9A2E0047066
:102CA000012B00D1BEE00F21147821400C003034FC
:102CB000092900DD98E04470022B00D1B2E054787D
:102CC0002511290030319F2C00D990E08170032B11
:102CD00000D1A7E00F2121400C003034092900DD8C
:102CE00087E0C470042B00D19CE094782511290062
:102CF00030319F2C00D97FE00171052B00D191E08C
:102D00000F2121400C003034092900DD76E04471A8
:102D1000062B00D186E0D4782511290030319F2C74
:102D200000D96EE08171072B00D17BE00F2121409B
:102D30000C003034092966DCC471082B00D171E025
:102D400014792511290030319F2C5FD80172092B8D
:102D500068D00F2121400C003034092958DC44721E
:102D60000A2B5FD054792511290030319F2C52D87D
:102D700081720B2B56D00F2121400C0030340929D1
:102D80004BDCC4720C2B4DD09479251129003031C5
:102D90009F2C00D9073101730D2B43D00F21214007
:102DA0000C003034092901DD37310C0044730E2B3F
:102DB00038D0D1790C11220030329F2900D9073246
:102DC00082730F2B2ED00F220A4011003731092AAF
:102DD00001DC30321100C173102B23D010300023DE
:102DE000037030BD07345AE737310C0063E7073111
:102DF0006CE737310C0074E707317DE737310C00A1
:102E000085E707318EE737310C0095E707319DE7FD
:102E100037310C00A3E70731AAE737310C00C47241
:102E20000C2BB1D1C018DAE7541C002030B50025B6
:102E300089B004000922002101A80095FFF720FBBA
:102E40000922002105A80495FFF71AFB4B236A46C7
:102E50006846137004A90D2201F016FE1521082200
:102E600020006944FFF712FB09B030BD10B5012105
:102E70000520FDF779FD10BD10B5002200210248A4
:102E800000F05AF910BDC046501800208022024BB5
:102E90005202DA647047C04600201150F0B5C646B1
:102EA00000B5060000F022F90C231B4DFF22AB6792
:102EB00005201A49FDF7BAFD40239846184C4022D8
:102EC00000212000FFF7DCFA43460127238321215C
:102ED0000023144A6770A260136063545F316184F9
:102EE00041462187053963540F4A10496360E26007
:102EF000A1620B606362E26201F016FE80239B0513
:102F00002F64EB6490230A4A3000EA50FFF7BEFFBB
:102F100080BCB846F0BDC04600001150F904002046
:102F20003018002084001050000110508000105014
:102F300010D001000B785B0602D14B78052B00D036
:102F400070478A78014B1A60FAE7C04600001150BA
:102F5000F0B5C64600B54B790C791B02887823433F
:102F6000CC787F21A4070140C509A20F4F001400AF
:102F7000324E7A195201B218907001206840507098
:102F800000205B055B0DD0701383D4768046CA00A9
:102F9000012D33D02A488446880162448446B444D3
:102FA0006046826040461060002933D0254AC9003F
:102FB00090466246414451603F223F339343022C86
:102FC00000D15B0020487A1901685201B218D16023
:102FD0001E4ACB180360514053408022884652015C
:102FE000934228D84346A4061C4380237F197F01BF
:102FF0001B06F6191C4373681C6011E014488446D4
:10300000880162448446B44460468262404610604F
:10301000002909D100236D01761973600D4BF3600F
:10302000012080BCB846F0BD084AC90090466246FF
:1030300041445162C0E7FFF7D3F8D3E730180020CE
:103040008400105004001050381C00200000105064
:10305000800010500001105010B501F065FD10BD4A
:1030600010B57F200C0020404000E4091100001939
:103070001A00034B4001C01800F05EF8012010BD9B
:10308000301800207F22130010B50B400A420BD0ED
:10309000C909802258004018064940014018120111
:1030A000002101F049FD10BD02220348C909521A4E
:1030B0008266EEE730180020002011507F221000B9
:1030C00010B508400A4200D110BD0023C9094000D4
:1030D000401804494001081800220349C37001F058
:1030E0002BFDF1E730180020FFF7FFFF80220D4B8A
:1030F000520410B51A600C4B0C491A6010008B6812
:103100009843FBD10A4C9C2200212000FFF7B8F91C
:103110008022002152010748FFF7B2F909236367B3
:1031200010BDC04600E0004000F0004000C000407C
:10313000000011500000105070B5837E04000D0097
:103140001600002B17D10023E38201332000A68252
:10315000A376256101F0E0FC002804D080219023B3
:10316000084A8902D150200001F09EFC002805D0B9
:103170000123237770BD01F0C7FCE4E7200001F0D4
:10318000BBFCF7E700201150024B5878431E9841D2
:10319000C0B270475C150020024B18784007C00F82
:1031A0007047C0465C150020034B1878FF38431E5B
:1031B0009841C0B27047C046EC0E0020F8B5CE462C
:1031C000474680B52C4E050033780120FF2B03D0F5
:1031D000C0BCB946B046F8BD532200212748FFF7CE
:1031E0004FF9274C2000FDF775FE264B1C60264C3E
:1031F00020001430FDF78AFE200001F0D1FB234BA4
:10320000234F1C60234B9846002B04D03800FFF757
:10321000F9FA214B1860424600243B78002A23D05B
:103220001E4A90461C4A9146A34212D80FD14346EB
:10323000984701343B78E4B2A342F5D228003570B8
:10324000FFF72CFE2800FFF711FE0120C0E7002049
:10325000BEE74A461268630094461B19DB006344CC
:10326000002BF4D01B68E3E700F0EEFE3B78002073
:10327000002BADD1E2E7C046EC0E00205C1500202B
:1032800014150020B0150020D00E0020B415002029
:103290008D1C002005280010341200204940001029
:1032A000F0B5DE4657464E464546E0B58BB001F0D8
:1032B000AFF8002800D10FE1C74BC84D9946C84B65
:1032C00007AC9B462E687269EFF3108172B61368E3
:1032D000002BFCD0BFF35F8FB1613000210001F003
:1032E000A1F97269B369BFF35F8F0021116083F3A5
:1032F0001088002800D1EFE06378082BE2D84A4616
:103300009B00D3589F466368002BDBD0A06898478A
:10331000D8E77F222179B24E0A405000CB093618F7
:10332000F618300001273030C378BB43C370C37830
:103330000337BB43C370002A00D1F2E0A94AF37CF3
:10334000002A06D0A84A1278934200D260E19B1A64
:10335000DBB2002B00D0BFE0A44E62792078A368D6
:10336000B047AFE75B4601221B78012113435A4661
:10337000137033235846D25C5E468A43C254C25C03
:1033800004208243F2540133F25C8A43F254F25C2B
:103390008243F254237800209A4600F005FD602213
:1033A00023791A40602A0DD0402A00D1BFE0DB0605
:1033B000DB0E012B00D136E1022B00D1D4E0002B33
:1033C00000D1C3E020780021FFF75CFE8021207847
:1033D000FFF758FE76E7824E3378DB0700D471E7BB
:1033E000834B002B00D16DE700E000BF6AE77C4E05
:1033F0003378DB0700D465E77E4B002B00D161E713
:1034000030780007C00F00E000BF5BE7764B754ADD
:103410009846002627781B78002A00D179E0764A62
:1034200092469E425FD319D1744B38009847434669
:1034300001361B78F6B2B342F3D2694E5322002113
:103440003000FFF71DF81022FF21F01CFFF718F8DD
:1034500030002022FF211330FFF712F800F09AFC11
:10346000674B002B00D12DE700E000BF2AE75E4B41
:103470005C4A9846002627781B78002A1FD05E4AAF
:1034800092469E423AD321D15C4B3800984743463E
:1034900001361B78F6B2B342F3D2514E53220021CB
:1034A0003000FEF7EDFF1022FF21F01CFEF7E8FFD1
:1034B00030002022FF211330FEF7E2FF07E0380042
:1034C00000F000FE43461B78002BE6D0444E00F08F
:1034D00061FC2379B370F5E60BB0F0BCBB46B24695
:1034E000A946A046F0BD52461268730094469B1947
:1034F000DB006344002BB1D05B6896E7524612684C
:10350000730094469B19DB006344002BDED05B689C
:10351000BBE7380000F0D6FD43461B78002B9DD159
:103520008BE762792078A36800F052FCCAE6354840
:10353000002800D146E700F037FC0121504608AAD8
:1035400000E000BF002800D0BCE63BE7202A00D105
:103550009EE0002A00D035E76379092B00D931E7D6
:10356000294A9B00D3589F467023217A0B4200D0F2
:1035700028E758460F330B405B00CE09C018194F9F
:103580008019C07C002F06D0174F3F78B84200D278
:10359000A0E0C01BC0B2002800D096E0002A00D0F6
:1035A00047E11A4F0220627990468243012A00D1F6
:1035B00042E14246002A00D004E75B449E193036BF
:1035C000F37806AA9B07DB0F0232138050460223D2
:1035D00008A900F081FB75E6044E0010B415002028
:1035E0005C150020052800108D1C0020BD42001035
:1035F000000000000000000034120020C540001050
:103600000000000000000000284E0010904E001046
:103610005A00D318B14ADB001268D318002B00D12E
:103620005AE71E6999E6237A0F2B00D9CAE6AC4AFD
:103630005B44DB78002A05D0AA4A127893425ED315
:103640009B1ADBB2002B00D0BCE6A748A74E00F0C7
:10365000ABFB01215046F36808AA9847002800D028
:1036600030E66022160023791E401A4200D0A9E6F7
:1036700063790A3B012B00D9A4E600F095FB63793E
:103680000A2B00D120E1504608A900F00DFB19E6F5
:10369000237A0F2B00D995E6914A5B44DB78002A08
:1036A00006D0904A1278934200D2E6E09B1ADBB231
:1036B000002B00D086E68C488C4E00F075FB012173
:1036C0005046F36808AA98473CE70027002A00D133
:1036D00068E777E647003818804FC0003F683F181A
:1036E000002A00D15EE7002F00D16BE6F86800F0F9
:1036F0005BFB01215046FB6808AA984722E7774AFE
:103700005E00F3181668DB00F618002E00D159E6AB
:10371000F0689CE7A279019273789A4207D0737897
:10372000002B00D046E1019B002B00D0EAE05B4675
:10373000019A504608A95A7000F0B6FAC2E57378AB
:1037400006AA023213705046012308A900F0C4FAF9
:10375000B8E5E088030AC0B20F2B00D932E664490D
:103760009A008A58974608A800F024FB5046A17991
:10377000FFF782FB0222337813433370A2E5E3881C
:10378000012B00D01EE60822337893435A4613706B
:1037900079E70220317806AB9A1C8B068908DB0F8B
:1037A00001400B4311E7E388012B00D00AE6082211
:1037B00033781343EAE74F4B002B00D102E600E0D9
:1037C00000BF021E00D1FDE5D37891781B020B43A8
:1037D000504608A900F080FAB4E6474B002B00D110
:1037E000F0E500E000BF021E00D1EBE55046137883
:1037F00008A900F071FAA5E62189FFF701FA021E77
:10380000F4D1DFE5022B00D112E13C4B002B00D1BB
:10381000D8E500E000BF0200002A00D1D2E5D3E7DE
:10382000FFF7E6F91223020008A9504600F054FA07
:1038300088E62D482D4F5AE7E288002A08D14246F3
:103840005B449E193036F378012A21D09B072ED590
:10385000002F00D136E5F86800F0A6FAFB6808AA48
:10386000012150469847002000F09EFA34235A4622
:10387000D35CDB0700D525E505E7184A5E00F318A1
:103880001668DB00F618002E00D19BE5F06814E7FF
:103890009B07DDD51A4B1878FFF710FC0222F3784E
:1038A00093434246F370F3789343F370D0E7144B9D
:1038B0001878FFF7E7FB0222F37813430122F37035
:1038C000F3781343F370C3E706AB9A1C5046012309
:1038D00008A9167000F000FAF4E4C0463412002083
:1038E000052800108D1C0020D9410010904E0010BA
:1038F000504E00100000000000000000000000001A
:10390000EC0E0020581EC0B2FFF776F9002800D157
:1039100058E543780593022B00D053E50121C27985
:103920000700931152110B400A4012015B0113432F
:103930005A4612782F318A4313435A461370C3787C
:1039400082781B021343C31809370393039BBB42BE
:1039500000D8ACE001227B7800920B2B03D1FB78DE
:1039600000933B78FF187B78042B00D02AE50026D3
:10397000039B584ADB1B9BB20293574B04931B7863
:10398000B24263D0B846B34256D800D01AE5534B82
:10399000534F41465046029A9847082803D9029A45
:1039A000824200D38AE0049B01361B78F6B2B34210
:1039B000E9D207E55046FFF74FFBB378454A00933D
:1039C000454B002698461B78002A0DD0454FB34240
:1039D00025D820D1444B50469847434601361B78A2
:1039E000F6B2B342F3D206E0504600F06BFB43461A
:1039F0001B78002B0FD1532200215846FEF740FDC3
:103A00005B461022FF21D81CFEF73AFD2022FF2141
:103A10003648FEF735FD5B46009A9A7083E6182318
:103A20003A68734394466344002BF4D05B68D2E752
:103A3000FFF7E2F80200EFE62A4B1F6818237343F2
:103A4000FF18002F00D1BDE4BB68A2E7029B39003C
:103A50001A005046984600F04BFB082800D8B1E405
:103A60004246824200D2ADE41D4B9846009B012B9A
:103A700028D000220AE0BB78D318DBB25B44D978A7
:103A8000FF2900D09EE40132DE70D2B2009B9A4240
:103A9000F1D18046330002003900144800F03CFDAB
:103AA000049B47441B78B34200D34FE78AE4104B92
:103AB000002B00D13BE600E000BF38E63B00474664
:103AC0009846D3E74246054B92689A42D1D1059B6E
:103AD0000093CEE7052800108D1C0020F140001057
:103AE000904E001034120020C54000106F150020C9
:103AF00000000000F8B557464E46DE4645460C002D
:103B0000E0B516001F00002A3CD0702398461E4BDB
:103B100000259B461D4B9A461AE05B461B78200009
:103B200099465346997800F0BBFC00281CD0210030
:103B30004846FFF70DFA002816D0A378DA09012AC3
:103B400019D00A9A013513702378E418B54219DAAE
:103B50006378052B08D1E3789B079B0FBB4203D109
:103B60004246A3781A42D8D00020F0BCBB46B246E9
:103B7000A946A046F8BD0B9A013513702378E418C6
:103B8000B542E5DB0120F0E7EC0E00205C150020DB
:103B9000802310B51B0184B001930E4B02901C686A
:103BA00003916269EFF3108372B611680029FCD0AB
:103BB000BFF35F8FA361200001A900F0F9FD6269E6
:103BC000A369BFF35F8F0021116083F3108804B0F5
:103BD00010BDC046B4150020702270B58B780C0063
:103BE0001A4201D0002070BD064B20001D78064B04
:103BF000997800F055FC0028F4D021002800FFF748
:103C0000A7F9F0E7EC0E00205C150020074B080038
:103C100019687F2310B50340C0095B0033301818C2
:103C2000034B181800F0F8FB10BDC046B01500207B
:103C30005C150020074B080019687F2310B503406E
:103C4000C0095B0033301818034B181800F00CFC47
:103C500010BDC046B01500205C1500207F2070B557
:103C600008400F4C4000CD09241864193034E57821
:103C70000020ED0700D570BD0126E57809483543E1
:103C80000078E570FFF7ECF90028F4D10122E37821
:103C90009343E370E37803329343E370EBE7C0466A
:103CA0005C150020EC0E002070B50A4E05003000B7
:103CB00008220C00FEF7EAFB00237F21F360227844
:103CC000B36091425B412800D90100220023FFF735
:103CD000C5FF70BD00150020F8B5CE464746914699
:103CE0002A4E80B50822070030000D009846FEF7E6
:103CF000CDFB4B46B3600023F381EC79A979240214
:103D00000C43231C444500D943469AB29046B381E4
:103D1000002C13D0002A1FD04B46002B34D0131C8C
:103D2000402A1FD89BB2984633787F2B20D8002199
:103D3000174A43463800FFF791FF09E07F222B78AE
:103D400038009A42644100230022E101FFF786FF18
:103D5000C0BCB946B046F8BD33787F2B11D980215D
:103D60000022E6E740239BB2984633787F2BDED9CA
:103D7000074C424649462000FEF788FB802122007E
:103D8000D7E700210022D4E70020E1E7001500205A
:103D90001C15002010B5142200210248FEF770FB0C
:103DA00010BDC04600150020014B18617047C04689
:103DB0000015002010B5054C010008222000FEF778
:103DC00065FB0023A360E36010BDC0460015002022
:103DD000F8B53B4C1D0023780600DA09C9098A4270
:103DE00013D00020002D00D0F8BD364B002B03D09F
:103DF00021003000FFF79EF82369002B44D02200F9
:103E00000321300098470120EEE77F2B06D8A068F9
:103E1000002837D02A002C49FEF738FBA368E28936
:103E200059195219E38892B2E281A160934214D0E9
:103E30003F2D12D9A589A81A071C80B240282FD877
:103E40002378BFB27F2B2DD80021AA4235D01E4A3D
:103E50003B003000FFF702FFC6E72369002B05D0C7
:103E6000220002213000984700280FD07F22002135
:103E7000237830009A42494100230022C901FFF70C
:103E8000EDFEB1E70020AFE70120ADE700213000F3
:103E9000FFF7F8F830008021FFF7F4F80120A3E7DE
:103EA0004027CDE7AA4207D0074C3A002000FEF792
:103EB000EDFA80212200CBE780210022C8E7C0462E
:103EC00000150020352F00101C15002010B504002F
:103ED000FFF75AF9002801D1002010BDFFF75CF967
:103EE0000028F9D1B2208000444303480019037927
:103EF00001201840F1E7C04638120020B2239B0091
:103F0000584310B5024B1030C01800F057FB10BDDD
:103F100038120020F0B5B225AD0045432C00C6464E
:103F2000174F1034E41900B5200092B200F0CAFB1C
:103F30000600200000F060FB3F2803D8300080BC62
:103F4000B846F0BD7B190020D9789846FFF75EFE91
:103F50000028F3D0200000F04FFB3F280AD992231D
:103F60009B00EA184346D219D97800204023FFF776
:103F700075FEE3E743460020D978FFF75BFEDDE7F7
:103F800038120020F8B50400FFF7FEF8002801D130
:103F90000020F8BDFFF700F90028F9D1B220800019
:103FA00044432500144E2435AD19280000F006FBCB
:103FB0000028EDD037190020B978FFF727FE002838
:103FC000E6D0A2239B009C466444A419210028004B
:103FD000402200F077FBB978051E08D003002200CC
:103FE0000020FFF73BFE0028D2D02800D1E70020B8
:103FF000FFF720FECCE7C0463812002070B5B2248F
:10400000A4004443094B2434E418050092B2200074
:1040100000F012FC0600200000F0D0FA3F2801D882
:10402000300070BD2800FFF7ADFFF9E7381200201F
:10403000B2239B00584310B5024B2430C01800F047
:10404000DBFA10BD38120020B222F0B51B4C83B051
:10405000002120009200FEF713FAFF236371184B32
:1040600080260025E3800127082321002000760018
:1040700023733200278138310095073B103000F060
:1040800065FA2100200039313200FF310123009709
:10409000243000F05BFA8E239B00E6183000FCF71A
:1040A00019FF90239B002662E6183000E561FCF7BB
:1040B00011FF2663656303B0F0BDC04638120020CF
:1040C00000C2FFFF10B5094C052200212000FEF7B9
:1040D000D7F920002434103000F062FC200000F0FA
:1040E0005FFC0121200000F07BFC10BD3812002095
:1040F000F0B54B79060083B0022B02D18B79022BED
:1041000003D00025280003B0F0BD304FBB78002B52
:10411000F7D18B7809253B700C780C196378242B28
:104120000BD1082A02D80FE0AA420DD32378E41855
:10413000ED186378ADB2242BF6D0052B21D0042BDB
:1041400002D163790A2B2FD0214C200000F054FAC1
:104150003F28D7D92600103E0020F178FFF756FD02
:104160000028CFD0200000F047FA3F2817D98E232F
:104170009B00E218F93BF178FF3B0020FFF76EFD52
:10418000C0E721003000FFF727FD0028B9D0A37851
:104190007B702378ED18E4186378ADB2CFE7F1783F
:1041A0000020FFF747FDADE70A4B27780193013365
:1041B0000093022202233000E119FFF79BFC002844
:1041C0009FD00E35ED19ADB2BEE7C04638120020C3
:1041D000481200203A120020F8B56023140012782B
:1041E000050013400020202B12D12F4A6379277934
:1041F00016781B023B439E420AD16378222B27D0BC
:1042000007D8202B17D0212B02D101293DD0012026
:10421000F8BD232BFCD101293FD00329F7D1234B33
:10422000002BF4D0E178A37809020020194300E0C4
:1042300000BF0120ECE7012927D00329E7D11C4B5F
:10424000002BE4D00020911DFEF7E2FA0120DFE709
:10425000012922D00329DAD101252E00A378E478A0
:10426000023924021C43147126402432100071408C
:1042700000F0B6FB0F4B002BC9D0620800203100C4
:104280002A4000E000BF0120C2E7072321002800E8
:10429000094AFFF721FD0120BAE721002800FFF7B6
:1042A00003FD0120B4E7C0463812002000000000E2
:1042B00011280010000000003E120020F8B55746FB
:1042C0004E464546DE46E0B5494F8046FA780C003A
:1042D0001E008A4264D19AB292239B00FD181023DB
:1042E0009B46BB442900584600F0A6FA414BD946EC
:1042F000002B18D07B79D946FF2B14D0002E12D07A
:10430000AA19924603E0013555450CD07B792A78ED
:104310009A42F8D1484600F067F90028F3D179793C
:1043200000E000BFEFE7344B002B04D0484600F01C
:104330005BF9002852D0484600F05EF93F2834D897
:104340004A46103A9378A34207D001242000F0BCDB
:10435000BB46B246A946A046F8BD284B002B02D06A
:10436000002000E000BF0020FFF70CFE0028ECD189
:10437000234D280000F022F90028E6D1002EE4D0D9
:10438000B306E2D1243D4046A978FFF73FFC041E66
:10439000DBD0002300224046A978FFF75FFCD5E779
:1043A000BB788B42D9D00024D0E74D46103D002089
:1043B000E978FFF72BFC002801D1AB78C3E748462A
:1043C00000F01AF93F280CD98E22920040230020D9
:1043D000E9784A44FFF742FCAB78B4E7FEF78AFB82
:1043E000A9E70020E978FFF725FCAB78ABE7C046EA
:1043F0003812002000000000F52A00100000000024
:104400005C12002010B50020FEF7D8FE10BDC0469B
:1044100010B5FEF7C9FE10BD037870B5DB070400C8
:104420000E00DD0F002B17D103785B0701D52800A4
:1044300070BD01213000494200F04EFB2378DB07BC
:10444000DD0F002B0AD123785B0708D404222378E0
:1044500001251343237002E00025E8E70025300022
:1044600000F01AFBE3E7C04670B50D00012104001F
:104470004942280000F030FB23785B07DE0F002B59
:1044800004DB280000F008FB300070BD2378DB0758
:1044900004D40422237893432370F2E70026F0E744
:1044A00010B5437904791B0223435B055A0DC37889
:1044B0009B079B0F022B05D0032B15D00020012B4F
:1044C00008D010BD02291CD0002040239342404157
:1044D000C0B2F6E702394B4259410D4B9C4661444C
:1044E00091424041C0B2ECE702394B425941F023BE
:1044F000002049429B001940403191424041C0B2E6
:10450000DFE7044BD3185A425341D8B2D9E7C0462B
:10451000FF03000000FEFFFF8A1870B5914207D22A
:104520007F264C78052C04D00C7809198A42F8D8DB
:1045300070BD34008D782C4064000419ED0963557A
:104540000C7809198A42ECD8F2E7C046F0B5C646A5
:1045500000B5040006A805788020884617001E00D4
:104560000002824227D8E068002803D00121494296
:1045700000F0B2FA2069002803D00121494200F07E
:10458000ABFA4346236073045B0CED031D43002329
:10459000E0686381A780E5802381002801D000F0D6
:1045A0007BFA20690124002801D000F075FA200070
:1045B00080BCB846F0BD0024F9E7C04610B50489B8
:1045C00041898288A3B288B28C4207D31B1A9BB25E
:1045D000101C9A4200D9181C80B210BD5100091A53
:1045E0005B189BB2F4E7C046030000895B89C01AE0
:1045F00043425841C0B2704710B50489418982884E
:10460000A3B288B28C4207D31B1A9BB200209A42F5
:1046100001D9D31A98B210BD5100091A5B189BB288
:10462000F4E7C04670B5040000690E00002803D00E
:104630000121494200F050FA25896089A288A9B277
:1046400083B285422CD3CD1AADB2002D2ED0AA4212
:1046500008D2914231D38B1A9BB263819A4203D81C
:104660009B1A9BB29A42FBD9E28821685204520CF1
:1046700053433000C918FDF709FF618901254B1C20
:104680009BB2A288994214D9002352009B1A9BB274
:1046900020696381002801D000F0FEF9280070BD78
:1046A0005500ED1A4D19ADB2002DD0D1002563890A
:1046B0009BB252009342EBDBE8E789188BB263812F
:1046C000CCE7C046F0B546464F46D646C0B50600D4
:1046D000006989469046002803D00121494200F034
:1046E000FBF931897289B5888BB294B2914257D364
:1046F0001F1BBFB2002F4DD0BD4205D2AB4254D2DA
:104700005B199CB22F0074814346B84540D89FB2D4
:10471000A54203D8641BA4B2A542FBD9F288281B8A
:104720005204530C19009846336861439C4680B28A
:104730006144874226D94346584383B21A0048460B
:104740009A46FDF7A3FE434648467D1B64195C4329
:1047500031685044A2B2FDF799FE7189B588CB1932
:104760009BB26A00994217D99B1A9BB23069738138
:10477000002801D000F090F93800E0BCBA46B146FC
:10478000A846F0BD424648467A43FDF77FFEE4E77F
:104790003B1CBCE773899BB26A009342E6DBE3E70C
:1047A0006F003F1BDF19BFB2A4E75B1B9CB2A9E7F8
:1047B000F8B50400C0680E00002803D0012149426A
:1047C00000F08AF9258920896189A288ADB283B277
:1047D0008FB2884228D3DB1B9BB29A4209D8E77973
:1047E000FF0906D1E068002801D000F055F9380033
:1047F000F8BD2B00954203D39B1A9BB29342FBD288
:10480000E28821685204520C5343C8183100FDF766
:104810003DFEA2886B1C9BB252009D4209D99B1A97
:104820009BB201272381DDE75100C91B5B189BB2B6
:10483000D3E79342F5DBF2E7F0B54E464546DE4658
:104840005746E0B589460500140083B0002A6ED0B3
:10485000C068002803D00121494200F03DF92F89AA
:10486000EA796B89BFB29BB2D20942D1AE889F422E
:1048700067D27200D31AFB189BB2002290469E4268
:1048800031D9F31A1A1C9BB2A34200D9221C93B24D
:104890009846E8884346FB189BB29B463C00B742CB
:1048A00003D3A41BA4B2B442FBD24004430C1800AF
:1048B0009A462B6860439C46311B89B2604441454F
:1048C0004ED35246434649465A43FDF7DFFDAB8877
:1048D0005B00BB4501D39B4503DB5A46D31A9BB211
:1048E0009B465B462B81E868002822D000F0D4F874
:1048F0001FE0AA889046944226D29F4244D3414664
:10490000FA1A92B2490012198A4209DB42469A18F1
:1049100092B2171BBFB29346BB423AD97F1ABFB2BD
:10492000E3199BB246469B46A046E888B6E70023BB
:104930009846404603B0F0BCBB46B246A946A046E6
:10494000F0BDFB1A9BB298E7E888A21A4404640CF5
:1049500054434246A144002AC5D046461F0099E769
:104960005346594389B20A0001914946FDF78EFD2D
:1049700043469A1B5346A2185A430199286892B29B
:104980004944FDF783FDA2E75100CA1ABA1892B252
:10499000B9E7B942C2DD4646E888A0467EE7C04690
:1049A00010B50400C068002803D00121494200F07E
:1049B00093F82069002803D00121494200F08CF8C7
:1049C0000023E06863812381002801D000F064F8AF
:1049D0002069002801D000F05FF8012010BDC0461A
:1049E00070B50400C0680D00002803D001214942C1
:1049F00000F072F82069002803D00121494200F03C
:104A00006BF87F21E379ED011940E0682943E171FA
:104A1000002801D000F040F82069002801D000F003
:104A20003BF8012070BDC04610B583070AD00300D3
:104A3000032102E001330B4205D01A78002AF9D194
:104A4000181A10BD030019680C4A0D4C8A188A43C5
:104A500022420FD15968094A04338A188A432242F4
:104A600008D15968054A04338A188A432242F1D092
:104A700000E001331A78002AFBD1E1E7FFFEFEFED9
:104A800080808080F8B5C04601B40248844601BCED
:104A9000604700BFD102002001B40248844601BC37
:104AA000604700BF3102002001B40248844601BCC7
:104AB000604700BFF909002001B40248844601BCE8
:104AC000604700BFA10D002001B40248844601BC2C
:104AD000604700BFC100002001B40248844601BC09
:104AE000604700BFA101002001B40248844601BC18
:104AF000604700BF0501002001B40248844601BCA4
:104B0000604700BF750B002001B40248844601BC19
:104B1000604700BF110B002001B40248844601BC6D
:104B2000604700BFD109002001B40248844601BC9F
:104B3000604700BF9503002001B40248844601BCD1
:084B4000604700BF1D0B0020BF
:104B480031206F6E0000000032206F6E0000000000
:104B580033206F6E0000000034206F6E00000000EC
:104B680035206F6E0000000036206F6E00000000D8
:104B780037206F6E0000000038206F6E00000000C4
:104B880039206F6E000000003130206F6E00000089
:104B98003131206F6E0000003132206F6E0000004E
:104BA8003135206F6E0000003136206F6E00000036
:104BB8003137206F6E0000003138206F6E00000022
:104BC8003139206F6E0000003230206F6E00000017
:104BD8004E6F207370696E6C6F636B7320617265C2
:104BE80020617661696C61626C6500004E6F2075AA
:104BF8007365722049525173206172652061766134
:104C0800696C61626C650000486172647761726505
:104C180020616C61726D20256420616C726561642D
:104C28007920636C61696D65640000000A2A2A2A8C
:104C38002050414E4943202A2A2A0A000A0000002F
:104C480048617264206173736572740052656C65A3
:104C580061736500626F6F74325F77323571303817
:104C680030000000312E352E310000007069636F6E
:104C780000000000627574746F6E00005365702048
:104C8800203320323032340006005250BBFF3CB68D
:104C9800744C001006005250E182887F5C4C001072
:104CA80006005250D3F07542544C00100D0A000013
:104CB800652700106927001075270010A12700102C
:104CC8009D2700100000000055534220737464694A
:104CD8006E202F207374646F7574000006005250A4
:104CE80053B4F4A1D04C00105261737062657272B3
:104CF80079205069000000005069636F00000000CF
:104D0800426F61726420434443000000526573653A
:104D18007400000009025400030100807D080B00A4
:104D28000202020000090400000102020004052436
:104D380000200105240100010424020205240600C4
:104D4800010705810308001009040100020A000098
:104D58000007050202400000070582024000000922
:104D680004020000FF00010512010002EF020140E9
:104D78008A2E0A0000010102030100000000000061
:104D8800F04C0010004D00107C1C0020084D001055
:104D9800144D0010556E68616E646C65642049524C
:104DA8005120307825780A00657020256420257305
:104DB8002077617320616C72656164792061766126
:104DC800696C61626C65000043616E277420636FD3
:104DD8006E74696E75652078666572206F6E2069DD
:104DE8006E6163746976652065702025642025737B
:104DF800000000006F757400696E0000C432001076
:104E08006E3400100C340010C4320010EE33001061
:104E1800D63300106433001012330010063300102C
:104E2800923700107E370010C4330010A6370010E8
:104E3800C43300106637001052370010C433001016
:104E48003E37001014370010C4330010203800100B
:104E580004380010F8370010C4330010C4330010B1
:104E6800DA37001004380010C4330010C4330010BF
:104E7800C4330010C4330010C4330010C43300100E
:104E8800C4330010B637001049400010C540001068
:104E9800F1400010D9410010BD4200100000000090
:104EA800AC020010A002001094020010904C0010F8
:104EB800880200109C4C0010A84C0010E44C001014
:104EC80003000068EFF3108C72B60268002AFCD069
:104ED800BFF35F8F04229A56002A0BDB00290FD0FC
:104EE80000200A601B68BFF35F8F00221A608CF3F2
:104EF80010887047D0221206126801201A71F1E753
:104F08000020EFE7F0B5C646150000B504001E0006
:104F18000268EFF3108172B61368002BFCD0BFF360
:104F28005F8F0423E356002B2DDB2268BFF35F8FCE
:104F38000020106081F31088D0221206127852B235
:104F480090469A4203D1002080BCB846F0BD0027A5
:104F58000BE02368BFF35F8F1F6081F31088280080
:104F6800310000F041FE0028EDD12268EFF31081F6
:104F780072B61368002BFCD0BFF35F8F23797F2BA9
:104F8800E7D9434602E0D0231B061B682371236838
:104F9800BFF35F8F00221A6081F310880120D3E7E6
:104FA800F0B5C64600B50D00040000F00DFEFA226B
:104FB80006000F00002328000021920000F01CFECC
:104FC80036184F41002F2CDBD0231B061B68002509
:104FD80098460BE02368BFF35F8F1D6081F310884C
:104FE8003000390000F000FE002818D12268EFF3E5
:104FF800108172B61368002BFCD0BFF35F8F237942
:105008007F2BE7D9434623712368BFF35F8F0022C4
:105018001A6081F31088012080BCB846F0BD0020DA
:10502800FAE70126014F7642CEE7C046FFFFFF7F31
:105038000268EFF3108172B61368002BFCD0BFF33F
:105048005F8FFF2303710368BFF35F8F00221A602D
:1050580081F3108840BF7047084810B50378002BCB
:105068000AD180230649074A5B051C68CC500433E3
:105078009342FAD10123037010BDC0468F1C002053
:10508800881600100001001010B5024B0133984734
:1050980010BDC04688160020034B1A68C0239B0029
:1050A8009343024A136070470C8001400C90014002
:1050B800054B1A6880239B005340C022920013407E
:1050C800024A13607047C0460C8001400C900140B2
:1050D8001423F0B5D6464F4646469A468146188868
:1050E8000433C0B598460E001B882749140098471A
:1050F800534607001888434624491B889847534657
:1051080005001888434622491B8898478046FFF7C0
:10511800A3FFB847A847FFF7CBFF002C1BD0C0213F
:1051280022000827022049053D008B6A1D401842CD
:105138000BD0002C09D0131B0D2B1FD84B461B7806
:10514800013C0B6601239C46E1442300002D0CD151
:105158001343002BE8D1FFF79FFFC047FFF794FFE9
:10516800E0BCBA46B146A846F0BD002AF1D00B6EA5
:10517800013A3370130001362343EAE7002DD3D0F8
:10518800002AD1D0F3E7C046494600004558000040
:105198004643000000231C4A10B59360D3601B4AA5
:1051A80000219360D3601A4A1A489360D3601A4A60
:1051B8009360D360194A9360D360194A9360D360AF
:1051C800184A9360D360184A9360D360174A936073
:1051D800D360174A9360D360164A9360D360164A27
:1051E8009360D360154A9360D360154A9360D36087
:1051F800144A9360D360F022920000F0D5FC124B61
:10520800124A1A6010BDC046000010500800105025
:105218001000105070180020180010502000105076
:105228002800105030001050380010504000105026
:105238004800105050001050580010506000105096
:105248006800105070001050381C00208001105069
:10525800F0B55746DE464E464546E0B5234B87B087
:105268009F6D002F23D0224B002499460123984696
:10527800204B01269A4604E001347600E4B2202C43
:1052880015D03E42F8D04B469E65434665086D00F2
:10529800A343ED186D015544280000F0A1FB002838
:1052A8000CD10134B743E4B27600002FE7D107B040
:1052B800F0BCBB46B246A946A046F0BDAB78082272
:1052C8009B46EB8A002103A8019300F06DFC07239D
:1052D800594602AA5371019B117203A80121059333
:1052E80000F0A6FB280000F013FBDAE700001150DD
:1052F80000301150301800209823D14A70B5D55885
:1053080080232C009B02102684B01C401D4278D0BC
:10531800CC4BCD4C9A6ACD4B00261A603B23E35CFC
:10532800022B00D1D7E07B23E35C022B00D11AE2E9
:10533800BB23E35C022B00D103E2FB23E35C022BDB
:1053480000D1ECE13C23FF33E35C022B00D1D1E137
:105358007C23FF33E35C022B00D1B6E1BC23FF338F
:10536800E35C022B00D19BE1FC23FF33E35C022BBF
:1053780000D14FE1B64BE35C022B00D136E1B54BCF
:10538800E35C022B00D11DE1B34BE35C022B00D19F
:1053980004E1B24BE35C022B00D1EBE0B04BE35CE1
:1053A800022B00D1D2E0AF4BE35C022B00D1B9E075
:1053B800AD4BE35C022B00D19EE0AC4BE35C022BCF
:1053C80000D1E2E1002E08D1A94B1B78002B04D1B3
:1053D8008021A84A90338902D15001AE984B0C2203
:1053E800002130009C6C00F0DFFB03236405640D92
:1053F8007370300002940121802400F019FB9E4E46
:10540800A402EB0663D480235B021D4214D0012260
:1054180023211C438C4B5A54DA70C023974ADB0073
:10542800019302AB03CA03C3012101A800F000FBEA
:105438008022904B92021A6580235B011D422FD176
:105448008023DB011D421AD180231B021D4204D197
:10545800AC4200D0B3E104B070BD01AE0C22002113
:1054680030001C4300F0A0FB0523012173703000BD
:1054780000F0DEFA80227F4B12011A65E8E701AEE0
:105488000C22002130001C4300F08EFB0423012174
:105498007370300000F0CCFA1022764B1A65D3E70F
:1054A80000221C43664B01AE1A60FFF773FE0C2204
:1054B8000021300000F078FB0123012173703000D7
:1054C80000F0B6FA80226B4B12031A65B8E7FFF7B3
:1054D800BFFE340097E73833E65C002E00D122E7A0
:1054E8000233E25C002A00D11DE700222000E254CA
:1054F800203000F03FFA16E7614BE35C002B00D147
:105508005BE7EF239B00E25C002A00D04FE1574B9A
:10551800E35C022B00D060E75A4BE35C002B00D021
:1055280038E15AE7584BE35C002B00D140E7DF2213
:105538009200A15C1E00002900D139E70023A35482
:10554800D8239B00E01800F015FA31E74F4BE35CD5
:10555800002B00D127E7CF229200A15C1E00002972
:1055680000D120E70023A354C8239B00E01800F0D3
:1055780001FA18E7464BE35C002B00D10EE7BF2287
:105588009200A15C1E00002900D107E70023A35464
:10559800B8239B00E01800F0EDF9FFE63D4BE35C13
:1055A800002B00D1F5E6AF229200A15C1E00002975
:1055B80000D1EEE60023A354A8239B00E01800F0D6
:1055C800D9F9E6E6344BE35C002B00D1DCE69F22F8
:1055D8009200A15C1E00002900D1D5E60023A35447
:1055E80098239B00E01800F0C5F9CDE62B4BE35C4F
:1055F800002B00D1C3E68F229200A15C1E00002977
:1056080000D1BCE60023A35488239B00E01800F0D7
:10561800B1F9B4E6F933FF33E35C002B00D1A9E616
:10562800FE225200A15C1E00002900D1A2E6200043
:105638000023E130A354FF3000F09CF99AE6C046FD
:1056480000001150004005403018002028180020A4
:105658003B0200007B020000BB020000FB020000CE
:105668003B0300007B030000BB030000FB030000BA
:105678008E1C002000301150100002000000105055
:10568800BA030000FA0300007A0300003A0300009E
:10569800FA020000BA0200007A0200003A02000092
:1056A800B933FF33E35C002B00D15DE6DE22520004
:1056B800A15C1E00002900D156E620000023A1307D
:1056C800A354FF3000F056F94EE67933FF33E35C1C
:1056D800002B00D142E6BE225200A15C1E00002928
:1056E80000D13BE6200000236130A354FF3000F0D6
:1056F80041F933E63933FF33E35C002B00D127E669
:105708009E225200A15C1E00002900D120E6200044
:1057180000232130A354FF3000F02CF918E6F833A9
:10572800E35C002B00D10DE6FC22A15C1E000029E1
:1057380000D107E600232000A354E03000F01AF956
:1057480000E6B833E35C002B00D1F6E5BC22A15C8F
:105758001E00002900D1F0E500232000A354A0304A
:1057680000F008F9E9E57833E35C002B00D1DFE5C8
:105778007C22A15C1E00002900D1D9E5002320006D
:10578800A354603000F0F6F8D2E50F4BE35C002B31
:1057980000D117E6FF239B00E25C002A00D11CE63B
:1057A8000022E2541C3BE01800F0E4F815E6002261
:1057B800E254E8239B00E01800F0DCF8A7E621009B
:1057C8000248694000F0F8F9FA0300009C4D001007
:1057D800084A0300126C0020920703D49A78D20971
:1057E800012A00D07047D87E023843425841C0B2DF
:1057F800F8E7C0460000115010B5FFF7E9FF002890
:105808000CD00749074B8C46074A9B6A12686344C9
:105818009B1A0020C6229A424041C0B210BDC04621
:10582800E0FCFFFF0040054028180020F8B5028B77
:10583800838A04000F00161C9A4200D91E1C80257A
:10584800B6B29B1BE2789BB2ED00A3823543002AD7
:1058580002D09025AD01354301214A40E2706278BB
:10586800002A09D0002B02D18023DB011D43002F21
:1058780000D02D042800F8BDE368B8019C4632002A
:105888006044216900F0C0F923699C46802366447E
:105898001B021D432661A38AE4E7C046836870B5EE
:1058A80004001D68002900D02D0C6378AD05AD0DEE
:1058B800002B09D1E38AEB18E382238BAB4201D991
:1058C8000023A382280070BDE36889019C462A0052
:1058D8002069614400F098F9E38AEB18E3822369B0
:1058E8005B192361E9E7C04610B50400836800210D
:1058F8001B68FFF7D3FF63681B685B0002D5238B27
:10590800834200D010BD01212000FFF7C7FFF9E74F
:1059180000238376436103617047C04610B58368EE
:10592800002901D01C682140002A11D08024E400FD
:10593800114322420CD01A6822420BD10A4A0A406B
:105948001A60FFE7FFE7FFE7FFE7FFE7FFE7836886
:10595800196010BD7F2281780448CB091140044AA0
:105968009B009A5800F028F9FFFBFFFFB04D00108C
:10597800C80E0020436870B5002180251E68040009
:10598800FFF754FF134B6D011B6C05439B070FD5A5
:10599800A3785B060FD0104B1E4080239B05334332
:1059A80062680021136020002A00FFF7B7FF70BD6E
:1059B800A378DB09EFD0A38A002BECD001212000CB
:1059C800FFF734FFA023054ADB05324005431343A4
:1059D800E6E7C04600001150FFFFFFAFFFFFFFDF03
:1059E80070B5857E0400002D13D0FFF77DFFA38AD4
:1059F800002B01D1280070BD2000FFF7FDFE051E19
:105A080003D0012300252377F4E72000FFF7B2FF36
:105A1800F0E77F2281780448CB091140034A9B00B4
:105A28009A5800F0C9F8C046D04D0010C80E0020A2
:105A3800F0B54378050085B0042B00D175E046D851
:105A4800022B00D183E0032B55D1504E504A00243D
:105A58003378002A00D192E04E4F03E00134E4B2DB
:105A68009C4214D8A342F9D9396862008C461219AD
:105A7800D2006244002AF1D05269002AEED0287878
:105A88006968904701343378E4B29C42EAD9424BC2
:105A98001A78520747D504211A7801A88A431A7040
:105AA80000210C2200F080F86A462B781371052338
:105AB80053713A4B1C686269EFF3108172B6136830
:105AC800002BFCD0BFF35F8FA16101A920E0052B5B
